{"abi":[{"type":"function","name":"createMeeting","inputs":[{"name":"meetingId","type":"string","internalType":"string"},{"name":"eventId","type":"string","internalType":"string"},{"name":"requiredStake","type":"uint256","internalType":"uint256"},{"name":"startTime","type":"uint256","internalType":"uint256"},{"name":"endTime","type":"uint256","internalType":"uint256"}],"outputs":[],"stateMutability":"nonpayable"},{"type":"function","name":"generateAttendanceCode","inputs":[{"name":"meetingId","type":"string","internalType":"string"},{"name":"code","type":"string","internalType":"string"}],"outputs":[],"stateMutability":"nonpayable"},{"type":"function","name":"getMeetingInfo","inputs":[{"name":"meetingId","type":"string","internalType":"string"}],"outputs":[{"name":"","type":"tuple","internalType":"struct MeetingStake.Meeting","components":[{"name":"meetingId","type":"string","internalType":"string"},{"name":"eventId","type":"string","internalType":"string"},{"name":"organizer","type":"address","internalType":"address"},{"name":"requiredStake","type":"uint256","internalType":"uint256"},{"name":"startTime","type":"uint256","internalType":"uint256"},{"name":"endTime","type":"uint256","internalType":"uint256"},{"name":"checkInDeadline","type":"uint256","internalType":"uint256"},{"name":"attendanceCode","type":"string","internalType":"string"},{"name":"codeValidUntil","type":"uint256","internalType":"uint256"},{"name":"isSettled","type":"bool","internalType":"bool"},{"name":"totalStaked","type":"uint256","internalType":"uint256"},{"name":"totalRefunded","type":"uint256","internalType":"uint256"},{"name":"totalForfeited","type":"uint256","internalType":"uint256"}]}],"stateMutability":"view"},{"type":"function","name":"getMeetingStakers","inputs":[{"name":"meetingId","type":"string","internalType":"string"}],"outputs":[{"name":"","type":"address[]","internalType":"address[]"}],"stateMutability":"view"},{"type":"function","name":"getStakeInfo","inputs":[{"name":"meetingId","type":"string","internalType":"string"},{"name":"staker","type":"address","internalType":"address"}],"outputs":[{"name":"","type":"tuple","internalType":"struct MeetingStake.Stake","components":[{"name":"staker","type":"address","internalType":"address"},{"name":"amount","type":"uint256","internalType":"uint256"},{"name":"stakedAt","type":"uint256","internalType":"uint256"},{"name":"hasCheckedIn","type":"bool","internalType":"bool"},{"name":"checkInTime","type":"uint256","internalType":"uint256"},{"name":"isRefunded","type":"bool","internalType":"bool"}]}],"stateMutability":"view"},{"type":"function","name":"hasStaked","inputs":[{"name":"meetingId","type":"string","internalType":"string"},{"name":"staker","type":"address","internalType":"address"}],"outputs":[{"name":"","type":"bool","internalType":"bool"}],"stateMutability":"view"},{"type":"function","name":"meetingStakers","inputs":[{"name":"","type":"string","internalType":"string"},{"name":"","type":"uint256","internalType":"uint256"}],"outputs":[{"name":"","type":"address","internalType":"address"}],"stateMutability":"view"},{"type":"function","name":"meetings","inputs":[{"name":"","type":"string","internalType":"string"}],"outputs":[{"name":"meetingId","type":"string","internalType":"string"},{"name":"eventId","type":"string","internalType":"string"},{"name":"organizer","type":"address","internalType":"address"},{"name":"requiredStake","type":"uint256","internalType":"uint256"},{"name":"startTime","type":"uint256","internalType":"uint256"},{"name":"endTime","type":"uint256","internalType":"uint256"},{"name":"checkInDeadline","type":"uint256","internalType":"uint256"},{"name":"attendanceCode","type":"string","internalType":"string"},{"name":"codeValidUntil","type":"uint256","internalType":"uint256"},{"name":"isSettled","type":"bool","internalType":"bool"},{"name":"totalStaked","type":"uint256","internalType":"uint256"},{"name":"totalRefunded","type":"uint256","internalType":"uint256"},{"name":"totalForfeited","type":"uint256","internalType":"uint256"}],"stateMutability":"view"},{"type":"function","name":"settleMeeting","inputs":[{"name":"meetingId","type":"string","internalType":"string"}],"outputs":[],"stateMutability":"nonpayable"},{"type":"function","name":"stake","inputs":[{"name":"meetingId","type":"string","internalType":"string"}],"outputs":[],"stateMutability":"payable"},{"type":"function","name":"stakes","inputs":[{"name":"","type":"string","internalType":"string"},{"name":"","type":"address","internalType":"address"}],"outputs":[{"name":"staker","type":"address","internalType":"address"},{"name":"amount","type":"uint256","internalType":"uint256"},{"name":"stakedAt","type":"uint256","internalType":"uint256"},{"name":"hasCheckedIn","type":"bool","internalType":"bool"},{"name":"checkInTime","type":"uint256","internalType":"uint256"},{"name":"isRefunded","type":"bool","internalType":"bool"}],"stateMutability":"view"},{"type":"function","name":"submitAttendanceCode","inputs":[{"name":"meetingId","type":"string","internalType":"string"},{"name":"code","type":"string","internalType":"string"}],"outputs":[],"stateMutability":"nonpayable"},{"type":"event","name":"AttendanceCodeGenerated","inputs":[{"name":"meetingId","type":"string","indexed":true,"internalType":"string"},{"name":"code","type":"string","indexed":false,"internalType":"string"},{"name":"validUntil","type":"uint256","indexed":false,"internalType":"uint256"}],"anonymous":false},{"type":"event","name":"AttendanceConfirmed","inputs":[{"name":"meetingId","type":"string","indexed":true,"internalType":"string"},{"name":"attendee","type":"address","indexed":true,"internalType":"address"},{"name":"code","type":"string","indexed":false,"internalType":"string"}],"anonymous":false},{"type":"event","name":"MeetingCreated","inputs":[{"name":"meetingId","type":"string","indexed":true,"internalType":"string"},{"name":"organizer","type":"address","indexed":true,"internalType":"address"},{"name":"requiredStake","type":"uint256","indexed":false,"internalType":"uint256"},{"name":"startTime","type":"uint256","indexed":false,"internalType":"uint256"},{"name":"endTime","type":"uint256","indexed":false,"internalType":"uint256"}],"anonymous":false},{"type":"event","name":"MeetingSettled","inputs":[{"name":"meetingId","type":"string","indexed":true,"internalType":"string"},{"name":"totalRefunded","type":"uint256","indexed":false,"internalType":"uint256"},{"name":"totalForfeited","type":"uint256","indexed":false,"internalType":"uint256"}],"anonymous":false},{"type":"event","name":"StakeDeposited","inputs":[{"name":"meetingId","type":"string","indexed":true,"internalType":"string"},{"name":"staker","type":"address","indexed":true,"internalType":"address"},{"name":"amount","type":"uint256","indexed":false,"internalType":"uint256"}],"anonymous":false},{"type":"event","name":"StakeForfeited","inputs":[{"name":"meetingId","type":"string","indexed":true,"internalType":"string"},{"name":"absentee","type":"address","indexed":true,"internalType":"address"},{"name":"amount","type":"uint256","indexed":false,"internalType":"uint256"}],"anonymous":false},{"type":"event","name":"StakeRefunded","inputs":[{"name":"meetingId","type":"string","indexed":true,"internalType":"string"},{"name":"attendee","type":"address","indexed":true,"internalType":"address"},{"name":"amount","type":"uint256","indexed":false,"internalType":"uint256"}],"anonymous":false}],"bytecode":{"object":"0x6080806040523461001657611b09908161001c8239f35b600080fdfe6080604052600436101561001257600080fd5b60003560e01c8063143cbbd61461172657806339d69ee3146116e557806346bfc96a1461149b57806346f45b8d1461121557806348ba009014610f1b57806389104f5614610db757806391a6e0f614610b9e578063b5cec9f014610aa0578063bef3bc3a146109b7578063e5bb3a5014610922578063e824ceac146105445763f168aee5146100a057600080fd5b3461053f5760a036600319011261053f576004356001600160401b03811161053f576100d090369060040161181d565b6024356001600160401b03811161053f576100ef90369060040161181d565b9060405160048251916020818186019461010a818388611864565b81016000815203019020015461050157604435156104bc5742606435111561047857606435608435111561042957602061014f91604051809381928651928391611864565b810160008152030190209080516001600160401b03811161035c576101748354611961565b601f81116103e1575b50806020601f821160011461037d57600091610372575b508160011b916000199060031b1c19161782555b82516001600160401b03811161035c576101c56001840154611961565b601f8111610315575b506020601f82116001146102a9578192939460009261029e575b50508160011b916000199060031b1c19161760018301555b6002820180546001600160a01b0319163317905560443560038301556064356004830155608435600583018190556103848101908110610288576006610247930155611a3e565b604051906044358252606435602083015260843560408301527f0256ea2121c5fbfba4f31b45a8571f33cb9a533a4e405f1917a64e0701987ff960603393a3005b634e487b7160e01b600052601160045260246000fd5b0151905038806101e8565b601f198216906001850160005260206000209160005b8181106102fd575095836001959697106102e4575b505050811b016001830155610200565b015160001960f88460031b161c191690553880806102d4565b9192602060018192868b0151815501940192016102bf565b600184016000526020600020601f830160051c810160208410610355575b601f830160051c820181106103495750506101ce565b60008155600101610333565b5080610333565b634e487b7160e01b600052604160045260246000fd5b905082015138610194565b6000858152602081209250601f198416905b8181106103c9575090836001949392106103b0575b5050811b0182556101a8565b84015160001960f88460031b161c1916905538806103a4565b9192602060018192868901518155019401920161038f565b836000526020600020601f830160051c8101916020841061041f575b601f0160051c01905b818110610413575061017d565b60008155600101610406565b90915081906103fd565b60405162461bcd60e51b815260206004820152602160248201527f456e642074696d65206d7573742062652061667465722073746172742074696d6044820152606560f81b6064820152608490fd5b606460405162461bcd60e51b815260206004820152602060248201527f53746172742074696d65206d75737420626520696e20746865206675747572656044820152fd5b60405162461bcd60e51b815260206004820152601c60248201527f5374616b65206d7573742062652067726561746572207468616e2030000000006044820152606490fd5b60405162461bcd60e51b81526020600482015260166024820152754d656574696e6720616c72656164792065786973747360501b6044820152606490fd5b600080fd5b3461053f5760208060031936011261053f576004356001600160401b03811161053f5761057590369060040161181d565b604051906105a5600482519385818186019661059281838a611864565b8101600081520301902001541515611a5e565b604051838183516105b7818388611864565b81016000815203019020600981019360ff92838654166108dd57600683015442111561089857600093600094604051848185516105f581838d611864565b8101600281520301902094604051808787829954938481520190600052876000209260005b8982821061087957505050610631925003876117e1565b60005b86518110156107b45760059260018060a01b038783861b8a010151169060405190816106648d8a51928391611864565b820191898160019485815203019020836000528952604060002091876003840154168080916107a7575b1561074c5750908183926106b1940154978893019060ff19825416179055611a31565b93600080808084865af16106c3611aa3565b501561070e577f424176e72555c4e358e08e069764909098d4771751db5dc8567c2703223236fc886106f489611a3e565b92604051908152a35b600019811461028857600101610634565b60405162461bcd60e51b81526004810189905260166024820152751499599d5b99081d1c985b9cd9995c8819985a5b195960521b6044820152606490fd5b909196501561075e575b5050506106fd565b61076b910154809a611a31565b987fb36b05949e285620de000bc14de059d42470c3fc7ab8d6eb2317644fecba70028861079789611a3e565b92604051908152a38a8080610756565b508888850154161561068e565b85838987858e83610812575b7ff6450ada487b1377554c699f89e3ce246ad1593b1d1ee3916c43b61bb931da8b949284600c6040969461080694600160ff1982541617905586600b8201550155611a3e565b948351928352820152a2005b60008080808760018060a01b036002880154165af161082f611aa3565b506107c05760405162461bcd60e51b815260048101879052601960248201527f4f7267616e697a6572207472616e73666572206661696c6564000000000000006044820152606490fd5b85546001600160a01b031684526001958601958c95509301920161061a565b60405162461bcd60e51b815260048101839052601960248201527f436865636b2d696e20706572696f64206e6f7420656e646564000000000000006044820152606490fd5b60405162461bcd60e51b815260048101839052601760248201527f4d656574696e6720616c726561647920736574746c65640000000000000000006044820152606490fd5b3461053f5760c0602061094c610937366118b5565b92908160405193828580945193849201611864565b8101600181520301902060018060a01b0380921660005260205260406000209081541690600181015490600281015460ff6003830154169060ff60056004850154940154169360405195865260208601526040850152151560608401526080830152151560a0820152f35b3461053f5760208060031936011261053f576004356001600160401b03811161053f57816109ec6109ff92369060040161181d565b8160405193828580945193849201611864565b8101600281520301902060405190818382549182815201908192600052846000209060005b86828210610a83578686610a3a828803836117e1565b604051928392818401908285525180915260408401929160005b828110610a6357505050500390f35b83516001600160a01b031685528695509381019392810192600101610a54565b83546001600160a01b031685529093019260019283019201610a24565b3461053f5760c060a0610afb610ab5366118b5565b919060405190610ac4826117c6565b6000825260006020958382888096015282604082015282606082015282608082015201528160405193828580945193849201611864565b8101600181520301902060018060a01b038092166000528252604060002060405191610b26836117c6565b815416928383526001820154908084019182526002830154906040850191825260ff6003850154169260608601931515845260a060ff600560048801549760808a01988952015416960195151586526040519687525190860152516040850152511515606084015251608083015251151560a0820152f35b3461053f57610bac3661191b565b604051918051610bcb6004602095868181870195610592818389611864565b610bfd8460405181818651610be1818389611864565b8101600081520301902092604051809381928751928391611864565b81016001815203019020336000528452604060002090600182015415610d7257600382019081549060ff8216610d3857604051610c4881610c41816007860161199b565b03826117e1565b87815191012086518888012003610cf357600801544211610cbb5760ff19166001179055426004909101557fa463b715242766033bc2c5cb9c111a83b3aeba471611f83773e999318f76e6a090610cb690610ca290611a3e565b9260405191829186835233968301906118f6565b0390a3005b60405162461bcd60e51b815260048101879052601060248201526f10dbd919481a185cc8195e1c1a5c995960821b6044820152606490fd5b60405162461bcd60e51b815260048101889052601760248201527f496e76616c696420617474656e64616e636520636f64650000000000000000006044820152606490fd5b60405162461bcd60e51b815260048101889052601260248201527120b63932b0b23c9031b432b1b5b2b21034b760711b6044820152606490fd5b60405162461bcd60e51b815260048101869052601f60248201527f4e6f207374616b6520666f756e6420666f7220746869732061646472657373006044820152606490fd5b3461053f57602036600319011261053f576004356001600160401b03811161053f57610de790369060040161181d565b6040518181809351602081930191610dfe92611864565b81016000815203602001902060405180610e18818461199b565b03610e2390826117e1565b6040519182610e35816001840161199b565b03610e4090846117e1565b60028101546003820154600483015460058401546006850154604051909593946001600160a01b031681610e77816007880161199b565b03610e8290836117e1565b600885015496600986015460ff1693600a87015495600b88015497600c0154986040519c8d9c8d6101a09081815201610eba916118f6565b8d810360208f0152610ecb916118f6565b9460408d015260608c015260808b015260a08a015260c089015287810360e0890152610ef6916118f6565b9461010087015215156101208601526101408501526101608401526101808301520390f35b3461053f57610f293661191b565b6040518251610f476004602093848181890195610592818389611864565b60405160028551610f59818486611864565b6000908301908152829003840190912001546001600160a01b031633036111c15781610f9091604051809381928851928391611864565b81016000815203019020926004840154421061117c576005840154421161114357825193600781016001600160401b03861161035c57610fd08154611961565b601f81116110fd575b508395601f811160011461106c5792611058949261104392857fc496648f5ceaaee24c5c3b7c1be5107dd9ac6ac46459476c008fb3913fab0693989660089a600091611061575b508160011b916000199060031b1c19161790555b60068101549788910155611a3e565b946040519384936040855260408501906118f6565b918301520390a2005b90508701518b611020565b601f1981169682600052856000209760005b8181106110e657509260018360089a6110589997947fc496648f5ceaaee24c5c3b7c1be5107dd9ac6ac46459476c008fb3913fab06939b999661104398106110cd575b5050811b019055611034565b89015160001960f88460031b161c191690558b806110c1565b888301518a5560019099019891870191870161107e565b8160005284600020601f880160051c810191868910611139575b601f0160051c01905b81811061112d5750610fd9565b60008155600101611120565b9091508190611117565b60405162461bcd60e51b81526004810183905260116024820152701359595d1a5b99c81a185cc8195b991959607a1b6044820152606490fd5b60405162461bcd60e51b815260048101839052601760248201527f4d656574696e6720686173206e6f7420737461727465640000000000000000006044820152606490fd5b60405162461bcd60e51b815260048101839052602660248201527f4f6e6c79206f7267616e697a65722063616e20706572666f726d20746869732060448201526530b1ba34b7b760d11b6064820152608490fd5b60208060031936011261053f576004356001600160401b03811161053f5761124190369060040161181d565b6040519061125e600482519385818186019661059281838a611864565b60405183818351611270818388611864565b81016000815203019020916003830154340361145d5760405184818451611298818387611864565b81016001815203019020336000528452600160406000200154611418576004830154610e0f198101908111610288574210156113d3578361134691604051828186516112e5818387611864565b810160018152030190203360005282526040600020336bffffffffffffffffffffffff60a01b8254161781553460018201554260028201556005600382019160ff199283815416905501908154169055604051809381928651928391611864565b81016002815203019020918254906801000000000000000082101561035c5761137a826113a6956001600a95018155611887565b81549060031b9033821b9160018060a01b03901b19161790550161139f348254611a31565b9055611a3e565b7ffe1ea42ccb063a8c0141aa9698f31f45ed5a723692d01747b81f28c94735574c604051923484523393a3005b60405162461bcd60e51b815260048101859052601760248201527f5374616b696e6720646561646c696e65207061737365640000000000000000006044820152606490fd5b60405162461bcd60e51b815260048101859052601f60248201527f416c7265616479207374616b656420666f722074686973206d656574696e67006044820152606490fd5b60405162461bcd60e51b8152600481018590526016602482015275125b98dbdc9c9958dd081cdd185ad948185b5bdd5b9d60521b6044820152606490fd5b3461053f57602036600319011261053f576004356001600160401b03811161053f5760206114d061154192369060040161181d565b60006101806040516114e1816117aa565b606081526060858201528260408201528260608201528260808201528260a08201528260c0820152606060e08201528261010082015282610120820152826101408201528261016082015201528160405193828580945193849201611864565b81016000815203019020600c6040519161155a836117aa565b60405161156b81610c41818561199b565b835260405161158181610c41816001860161199b565b602084015260028101546001600160a01b03166040808501919091526003820154606085015260048201546080850152600582015460a0850152600682015460c0850152516115d781610c41816007860161199b565b60e0840152600881015461010084015260ff6009820154161515610120840152600a810154610140840152600b81015461016084015201546101808201526040518091602082526101806116a861163c83516101a060208701526101c08601906118f6565b611658602085015191601f1992838883030160408901526118f6565b9060018060a01b03604086015116606087015260608501516080870152608085015160a087015260a085015160c087015260c085015160e087015260e085015190868303016101008701526118f6565b9161010081015161012085015261012081015115156101408501526101408101516101608501526101608101518285015201516101a08301520390f35b3461053f5760206116f8610937366118b5565b810160018152030190209060018060a01b031660005260205260206001604060002001541515604051908152f35b3461053f57604036600319011261053f576004356001600160401b03811161053f5761175690369060040161181d565b6117726020602435928160405193828580945193849201611864565b81016002815203019020805482101561053f5760209161179191611887565b905460405160039290921b1c6001600160a01b03168152f35b6101a081019081106001600160401b0382111761035c57604052565b60c081019081106001600160401b0382111761035c57604052565b90601f801991011681019081106001600160401b0382111761035c57604052565b6001600160401b03811161035c57601f01601f191660200190565b81601f8201121561053f5780359061183482611802565b9261184260405194856117e1565b8284526020838301011161053f57816000926020809301838601378301015290565b60005b8381106118775750506000910152565b8181015183820152602001611867565b805482101561189f5760005260206000200190600090565b634e487b7160e01b600052603260045260246000fd5b604060031982011261053f57600435906001600160401b03821161053f576118df9160040161181d565b906024356001600160a01b038116810361053f5790565b9060209161190f81518092818552858086019101611864565b601f01601f1916010190565b90604060031983011261053f576001600160401b0360043581811161053f57836119479160040161181d565b9260243591821161053f5761195e9160040161181d565b90565b90600182811c92168015611991575b602083101461197b57565b634e487b7160e01b600052602260045260246000fd5b91607f1691611970565b90600092918054916119ac83611961565b918282526001938481169081600014611a0e57506001146119ce575b50505050565b90919394506000526020928360002092846000945b8386106119fa5750505050010190388080806119c8565b8054858701830152940193859082016119e3565b9294505050602093945060ff191683830152151560051b010190388080806119c8565b9190820180921161028857565b611a5690602060405192828480945193849201611864565b810103902090565b15611a6557565b60405162461bcd60e51b81526020600482015260166024820152751359595d1a5b99c8191bd95cc81b9bdd08195e1a5cdd60521b6044820152606490fd5b3d15611ace573d90611ab482611802565b91611ac260405193846117e1565b82523d6000602084013e565b60609056fea2646970667358221220ab1f7a5469cdd34577cc4b994cc9d9de68ad986d114c2f828e58c6ea33e19c8c64736f6c63430008130033","linkReferences":{}},"methodIdentifiers":{"createMeeting(string,string,uint256,uint256,uint256)":"f168aee5","generateAttendanceCode(string,string)":"48ba0090","getMeetingInfo(string)":"46bfc96a","getMeetingStakers(string)":"bef3bc3a","getStakeInfo(string,address)":"b5cec9f0","hasStaked(string,address)":"39d69ee3","meetingStakers(string,uint256)":"143cbbd6","meetings(string)":"89104f56","settleMeeting(string)":"e824ceac","stake(string)":"46f45b8d","stakes(string,address)":"e5bb3a50","submitAttendanceCode(string,string)":"91a6e0f6"},"id":21}